:10100000FFFFFFFFFFFFFFFFFFFFFFFFFFFFFFFFF0
:2010100028420020E99E000081CC000081CC000081CC000081CC000081CC000081CC0000E1
:1C10300081CC000081CC000081CC000081CC000081CC000081CC0000DFD2000025
:20104C002DE9FE4FDFF800B54FF0400C0FF2FC4E91E8700741784FF0000707EBC417A7EB71
:20106C00C40707EB451707EB850707EBC60706EB441606EB840606EBC50605EBC4055EF87D
:20108C00212010F8021BC2F303031C44C2F305131D44C2F386231E44C2F348431F4407EB40
:2010AC00C417A7EBC40707EB451707EB850707EBC60706EB441606EB840606EBC50605EBEF
:2010CC00C4055EF821204178C2F303031C44C2F305131D44C2F386231E44C2F348431F443F
:2010EC0007EBC417A7EBC40707EB451707EB850707EBC60706EB441606EB840606EBC506AD
:20110C0005EBC4055EF8212010F8021BC2F303031C44C2F305131D44C2F386231E44C2F390
:20112C0048431F4407EBC417A7EBC40707EB451707EB850707EBC60706EB441606EB84063A
:20114C0006EBC50605EBC4055EF821204178C2F303031C44C2F305131D44C2F386231E44B5
:20116C00C2F348431F44A7EB0803B846A3EB09029946A2EB0A039246BCF1010CA3F50023C6
:20118C004BF8043B7FF467AF06BCA1E8700791E86000B2E8800F17B9A2F11002D0E0EA481D
:2011AC004FF0080CBCF1010C036803FB07F34FEAA32305EB030E03FB08F40EFB0AF5A6EB20
:2011CC00A52505EBA42503FB09F40EFB0BF34FEAA424A4EBA32640F804EB036803FB07F39B
:2011EC004FEAA32305EB030E03FB08F40EFB0AF5A6EBA52505EBA42503FB09F40EFB0BF3CB
:20120C004FEAA424A4EBA32640F804EB036803FB07F34FEAA32305EB030E03FB08F40EFBDC
:20122C000AF5A6EBA52505EBA42503FB09F40EFB0BF34FEAA424A4EBA32640F804EB0368A2
:20124C0003FB07F34FEAA32305EB030E03FB08F40EFB0AF5A6EBA52505EBA42503FB09F479
:20126C000EFB0BF34FEAA424A4EBA32640F804EB036803FB07F34FEAA32305EB030E03FB7A
:20128C0008F40EFB0AF5A6EBA52505EBA42503FB09F40EFB0BF34FEAA424A4EBA32640F897
:2012AC0004EB036803FB07F34FEAA32305EB030E03FB08F40EFB0AF5A6EBA52505EBA425BA
:2012CC0003FB09F40EFB0BF34FEAA424A4EBA32640F804EB036803FB07F34FEAA32305EB2E
:2012EC00030E03FB08F40EFB0AF5A6EBA52505EBA42503FB09F40EFB0BF34FEAA424A4EB29
:20130C00A32640F804EB036803FB07F34FEAA32305EB030E03FB08F40EFB0AF5A6EBA52511
:20132C0005EBA42503FB09F40EFB0BF34FEAA424A4EBA32640F804EB7FF434AF60C126E7E2
:20134C00814803462026761E30C82C444FEA640443F8044BF7D191E86000B2E8800F17B968
:20136C00A2F11002D0E078484FF0040CBCF1010C036803FB07F34FEAA32305EB030E03FBE2
:20138C0008F40EFB0AF5A6EBA52505EBA42503FB09F40EFB0BF34FEAA424A4EBA32640F896
:2013AC0004EB036803FB07F34FEAA32305EB030E03FB08F40EFB0AF5A6EBA52505EBA425B9
:2013CC0003FB09F40EFB0BF34FEAA424A4EBA32640F804EB036803FB07F34FEAA32305EB2D
:2013EC00030E03FB08F40EFB0AF5A6EBA52505EBA42503FB09F40EFB0BF34FEAA424A4EB28
:20140C00A32640F804EB036803FB07F34FEAA32305EB030E03FB08F40EFB0AF5A6EBA52510
:20142C0005EBA42503FB09F40EFB0BF34FEAA424A4EBA32640F804EB036803FB07F34FEAC9
:20144C00A32305EB030E03FB08F40EFB0AF5A6EBA52505EBA42503FB09F40EFB0BF34FEA68
:20146C00A424A4EBA32640F804EB036803FB07F34FEAA32305EB030E03FB08F40EFB0AF5B4
:20148C00A6EBA52505EBA42503FB09F40EFB0BF34FEAA424A4EBA32640F804EB036803FB41
:2014AC0007F34FEAA32305EB030E03FB08F40EFB0AF5A6EBA52505EBA42503FB09F40EFB0C
:2014CC000BF34FEAA424A4EBA32640F804EB036803FB07F34FEAA32305EB030E03FB08F425
:2014EC000EFB0AF5A6EBA52505EBA42503FB09F40EFB0BF34FEAA424A4EBA32640F804EB42
:20150C007FF434AF60C126E74FF0000080F300880D4802BC08263CC822F3CF0223F3CF03EE
:20152C0024F3CF0425F3CF05761E21F8022B21F8023B21F8024B21F8025BECD1EFF300809E
:20154C00C0F3C060BDE8F08F502E00200000000011040200210C080032100A0031181400F5
:20156C00421C160052241C0063281E0041282800522C2A00623430007338320072403C00E6
:20158C0083443E00934C4400A4504600513C46006240480072484E00834C500082545A00C9
:2015AC0093585C00A3606200B464640092646E00A3687000B3707600C4747800C37C82000E
:2015CC00D4808400E4888A00F58C8C0061547000725872008260780093647A00926C840076
:2015EC00A3708600B3788C00C47C8E00A27C9800B3809A00C388A000D48CA200D394AC003E
:20160C00E498AE00F4A0B40005A5B600B290B600C394B800D39CBE00E4A0C000E3A8CA001F
:20162C00F4ACCC0004B5D20015B9D400F3B8DE0004BDE00014C5E60025C9E80024D1F2005F
:20164C0035D5F40045DDFA0056E1FC007170A8008274AA00927CB000A380B200A288BC008F
:20166C00B38CBE00C394C400D498C600B298D000C39CD200D3A4D800E4A8DA00E3B0E4009D
:20168C00F4B4E60004BDEC0015C1EE00C2ACEE00D3B0F000E3B8F600F4BCF800F3C402017D
:2016AC0004C9040114D10A0125D50C0103D5160114D9180124E11E0135E5200134ED2A01B5
:2016CC0045F12C0155F9320166FD3401D2C41801E3C81A01F3D0200104D5220103DD2C0120
:2016EC0014E12E0124E9340135ED360113ED400124F1420134F9480145FD4A0144055501E4
:20170C005509570165115D0176155F0123015F0134056101440D67015511690154197301BF
:20172C00651D750175257B0186297D0164298701752D890185358F019639910195419B0104
:20174C00A6459D01B64DA301C751A5018190F0009294F200A29CF800B3A0FA00B2A8040194
:20176C00C3AC0601D3B40C01E4B80E01C2B81801D3BC1A01E3C42001F4C82201F3D02C01D4
:20178C0004D52E0114DD340125E13601D2CC3601E3D03801F3D83E0104DD400103E54A01B2
:2017AC0014E94C0124F1520135F5540113F55E0124F960013401670145056901440D7301F1
:2017CC005511750165197B01761D7D01E2E46001F3E8620103F1680114F56A0113FD74015B
:2017EC002401770134097D01450D7F01230D890134118B0144199101551D930154259D011C
:20180C0065299F017531A5018635A7013321A7014425A901542DAF016531B1016439BB01FE
:20182C00753DBD018545C3019649C5017449CF01854DD1019555D701A659D901A561E30143
:20184C00B665E501C66DEB01D771ED01F200990103059B01130DA1012411A3012319AD0171
:20186C00341DAF014425B5015529B7013329C101442DC3015435C9016539CB016441D5017B
:20188C007545D701854DDD019651DF01433DDF015441E1016449E701754DE9017455F3015E
:2018AC008559F5019561FB01A665FD018465070295690902A5710F02B6751102B57D1B029E
:2018CC00C6811D02D6892302E78D25025355090264590B027461110285651302846D1D0203
:2018EC0095711F02A5792502B67D2702947D3102A5813302B5893902C68D3B02C5954502CB
:20190C00D6994702E6A14D02F7A54F02A4914F02B5955102C59D5702D6A15902D5A96302AD
:20192C00E6AD6502F6B56B0207BA6D02E5B97702F6BD790206C67F0217CA810216D28B02EE
:20194C0027D68D0237DE930248E295022DE9FE43AF4C0F460646F80B80F03581B80880F038
:20196C00C7806069B90F67D2A07A002848D1380948D30025657001262672284604F09FFEDB
:20198C00A4480CF0C1FAA4492A4604F14C000CF090FC607901281AD1A079C0B99F4E30686E
:2019AC0070B10BF0FDFF6169236A3268401A000BE061C018B0EBC21F28BF256208D220624E
:2019CC0004F1C8004FF000510BF026FF31E0667104F1380140F60900088094F8450000F0F0
:2019EC00F00040F0010084F84500658794F8440000F0F00084F84400E563894E316018E0F5
:201A0C00380914D2B80BC0F0FB8004F128000CF071FC061C08D0706830B17568F068B6F988
:201A2C001C1082A20CCAA84727F40057E8E00020A07227F00807E3E0D8B104200BF066FA28
:201A4C00B8B10BF0ADFFA0616169814226BF401A401E401A000BF060F06840F6C41100F532
:201A6C008D708142F06003D340F2EE22824200D9F1600025D6F818C06561BCF1000F0FD018
:201A8C0094F8450010F00F0F0AD1708C40F60901814205D167A20CCA30466FF48071E047CB
:201AAC00604904F14C002A460CF003FCA07950B10220ADF8000068460BF02CF8A571BDF84C
:201ACC000800A4F8A000012060702079A846401C2071192084F807800CF022F9756925B14A
:201AEC0056A20CCA30464146A84727F0005787E004F1300948460CF0FDFB061C5AD009F056
:201B0C00CCF94FF00008B269C6F818807068B8B1F07F42F00202002300F00700401E07D007
:201B2C00401E03D0801E06D146A002E047A000E048A090E80C007568F068B6F91C10A847F9
:201B4C000CF084FA0546B4F93600401C6FF31F30E086206B1F30017801F07F01017048469B
:201B6C000BF082FD28460CF0A1FBF068B0F99410B4F9362091421DD1217801291AD090F83B
:201B8C00965095B9056885B1E1680968B1F1FF3F10D0254909687030B5FBF1F10CF0CEFB12
:201BAC00F06870300BF0AAFE04E080F89680404606F0A0FD48460CF09DFB27F0020708B1F8
:201BCC0047F002071CE00CF041FA014604F12C000CF090FB0646B56908460CF067FBA808D1
:201BEC000CD25EB1B069A843B061706830B12A46F068B6F91C1075680023A84727F48047AA
:201C0C0027B104F1C80039460BF006FEBDE8FE83C0120020E979000035C800007428002072
:201C2C0000100440893E000090EE00000000000020000000000000000000000200000000DD
:201C4C00000000040000000000000010000000000000004000000000000000202DE9FE43AD
:201C6C000646DFF8DC82DFF8DC92B2780024101C00F03581801E00F00D81401E012840F29D
:201C8C00E180801E00F0A880401E7BD0401E59D0083800F04681801E40F046814546B088A2
:201CAC0095F83E70ADF80000052F45D001208DF80A0005F1CC000CF021FB95F83E00012871
:201CCC001BD0042819D0032806D0022804D0F28831897089B38907E0B5F84020B5F842109D
:201CEC00B5F84400B5F84630ADF80220ADF80410ADF80600ADF8083020E0B5F84000F18856
:201D0C008842D8BF081CADF802003189B5F842008842D8BF081CADF804007189B5F84400C9
:201D2C008842D8BF081CADF80600B5F84630B0898342D8BF031CDDE78DF80A4068460CF053
:201D4C00FBF8F1E0454605F1F0000CF0D7FA7078002840F0E980F088E8823089288370898D
:201D6C00688305F1CC000BF0ABFF002840F0DC80AB6A002B00F0D8801B68E88A298B6A8B2B
:201D8C009847D1E0B0880AF09BFC45462146062205F1380005F0E0F9EC822C836C83B07993
:201DAC00687305F1CC000CF0A9FA05F1F0000CF0A5FA01244FF6FF706F79A8824FB9B0793E
:201DCC00082814BF04200520A87020460BF0B8FCAAE00320A870A7E0707858BB311D0A6877
:201DEC00454605F138000260898881800627AF707089A882F089E882308A2883708A68830E
:201E0C00F0784446287394F83E00012818BF02280AD11F2008F0D8FB4FF47A71024604F1E5
:201E2C00CC00514308F0CEFEF0787289311D08F005FE7BE0707831286FD14D46042028709B
:201E4C00204623E07778002F67D14546698AA878032A13D02A796F7921B9012A14BF6C71C9
:201E6C002C7106E0174304D005F1A80008F0AAFEA878072814BF0420062007E0062807D00F
:201E8C002879002808BF0324DAD00220A8704DE00724D5E77078751C00283ED14246F778E0
:201EAC009078D1799FB9022816D0072814D0062802D1517901290FD103280DD002F1A800D1
:201ECC000BF0FEFE40B901200BF03AFC04E08732204607F06BF928702878F0B924E0707889
:201EEC00D8B945460220102105F1480209F0DEF90320102105F1580209F0D8F9F61C05F1E1
:201F0C002C00B7883168878005F1680201600120A979A87007F04AF940B108204D46287010
:201F2C0004E0B0880BF0FCFF012C06D14546686A18B1016809B1A8788847BDE8FE83C0461B
:201F4C00A00F0020A20F00202DE9F04FB34C20690668002118220823ADF14C0D05A80CF064
:201F6C0099F804F14405284605A90AF03FF84FF0010B4FF0000A04F138010B9104F10C00DA
:201F8C00056004F158010C9104F128010D9100F1CC010E918C300F90201D1090E01C1190F7
:201FAC00E06851460F224FF0FF3302F0BFFB0546280980F01281A80815D384F800A0C4F8F9
:201FCC0014A084F801A0B77B2FB930694000402838BF402004E030694008102838BF10204E
:201FEC00606225F00205E80806D3032084F82C0032680D99206990476808D1D3206A01A97B
:20200C0007F04CF90028CBD0676A002F40F0C4802778F7B1206909F0A8FDE061A8B9B17B05
:20202C0000290CBF40221022B08AA378051FAA4203DB5B1CD8B2A0700BE0002914BF1021A0
:20204C004021401A001F606203E084F800A0C4F814A0B26801980F990E9BFEF7F1FF84F804
:20206C0001B094F800906078012840F0AF80B9F1010F00F0AB80B37BE0696769A5690830C5
:20208C00F3B9B18A6A00C2F14003C91B091F8B4204DB84F800B08846D94602E06A00C2F11D
:2020AC0040080E990068891838184246001D04F089F908EB070008EBD87705EB670535E004
:2020CC00B4F904302FB994F903100268517001684B80B18A2B46102203EBD373A2EB630228
:2020EC00CB1B1B1F9A4206DBC91B84F800B0091F4FEA410801E0C5F12008109900910068DC
:20210C00119B0E990FFA88F23F183F1D01EB4501384605F05BF894F80090A76960694146B6
:20212C0001EBD17108EB070500EB61006061202D32BFA56184F801A0C4F818A0B9F1000FCB
:20214C0091D02069E16901AA08F0DEF8206909F00CFDE061D0B9B27B002A0CBF40231023B9
:20216C00B18AA069A5780F1F1B1ABB4203DB6D1CE8B2A07007E0002A14BF10224022891A66
:20218C004018001F606284F801A01FE084F800A0C4F814A0D14666E7B07B00280CBF40216F
:2021AC001021A278B94205D200280CBF403F103F67620BE0521CD0B2A070B57B002D06BF5F
:2021CC007F1C78087800A061C4F824A002980490206A04A90BF00CFC10E70A2002F068FC00
:2021EC000BE0A0680BF062FF0546F269B18AA8689047F2690C2128469047A0680BF06EFE80
:20220C000028EED00B980CF09BF80C980CF084F820690F2106F07EFBC2E6C0462005002063
:20222C00F8B5A0F2013517460E46022D40F20C818649874C874A884B2D1F0F2D04D9143D82
:20224C004AD0AD1E1CD011E0DFE815F0BA00B500EB00DB00AE00A700FE009F009800100015
:20226C001000900086007A006F006200282880F2EB80022E40F0E880398808F077FEF8BD09
:20228C00012E40F0E1800A469078012800F0DC80D1783878D07081B9002800F0D58010783D
:2022AC00012800F0A080042800F09D80062800F09A80052800F09780F8BD3878002840F077
:2022CC00C3801078032800F09980072800F09680052800F09380F8BD012E40F0B580387895
:2022EC00012840F0B180254605F1F0000BF0E8FC002840F0A98004F13E01002005F07AF9DB
:20230C00002840F0A18004F1CC000BF0F7FFF8BD022E40F0998038880A28C0F29580B0F5FA
:20232C00486F00F39180114614E0022E40F08C803888B0F5FA7F80F2878011460880F8BD34
:20234C00022E40F08180388806287DDBB0F5486F7ADC1946891CF1E7022E75D138880628D8
:20236C0072DBB0F5486F6FDC1946E7E7012E6BD13878062868DA1146891F0CE0012E63D157
:20238C003878042860DA093105E0012E5CD13878082859DA08310870F8BD012E54D1387823
:2023AC00042851DAC91DF6E7012E4DD1387804284ADC891DEFE7022E46D138881031BDE740
:2023CC00012E41D10A46D07801283DD091783878907061B9002837D01078012803D0042830
:2023EC0018BF052830D101200BF0AAF9F8BD387850BB1078022818BF052825D10BF0F0FB0B
:20240C00F8BD254600211F2205F18704204604F0A3FE39463246204603F0D4FF0020EE7110
:20242C000EE0254600211F2205F16804204604F093FE39463246204603F0C4FF0120AE7135
:20244C003146224606F0B2FEF8BDC046A20F0020A00F0020E40F0020E00F00202DE9F04F19
:20246C000128ADF1140D40F0F280DFF81492D9F8DC00012840F0E9800220C9F8DC000BF020
:20248C008FFC0290012007F0C9FB20B101210646C9F8DC10D5E00BF06BFC03906E484FF0AC
:2024AC000008C0F8008001200AF030FD012818BFCDF8008004D1404606F088FC01200090BD
:2024CC0066486E4CC0F800801934D4F8FF0F11200BF074FD00280CBF4646012610200BF0BB
:2024EC006DFD08B146F002060F200BF067FD08B146F004060B200BF061FD30B1584800687B
:20250C005849006B0246088890470A200BF056FD0028404618BF01204FF0805B0BF5DC756B
:20252C0028B128685049006B0246088890474F480127076028688069014646F02000884768
:20254C004B4807600BF034FD00F001010191400815D248480BF07CFC8246BAF1040FF8D045
:20256C00BAF1010F06D1DBF8D801406802464148032190474049086820F0030008604046A3
:20258C0000F080F82868D4F8FF1F806B8047019801280ED0BAF1010F06D1DBF8D801406815
:2025AC0002463448394690473349086840F0030008602A48076028684069014630468847D0
:2025CC000B200BF0FBFC28B128682649C06A0246088890470A200BF0F1FC28B1286822493B
:2025EC00C06A024608889047204807600322C9F8DC201F4BC3F800802868406B01463046A8
:20260C0088470128F8D1042007F008FB124807601A48D4F8FF1F01688909FCD30098012837
:20262C0002D1384606F0D2FB0BF0BCFC082007F0F5FA06460398C9F8DC7008F0B9FE05F021
:20264C0017FF02980AF002F802E0042600E00126304605B0BDE8F08F0C400940000222436C
:20266C00B8010010CEE60000CAE6000028200860800104430040034024220840141009402B
:20268C001C1900202DE9F84F82467A48DFF8D89135380068800880F0D88009F047FE054604
:2026AC0078480830D0F8008000244FEA2876761C5FEA98500AD2C5F13E0015F10A0F4FEAE8
:2026CC00E000D8BF08208642B8BF061C634FD7F87C01C0F304600BF0B4FB83463868C0F313
:2026EC0004400BF0AEFB06EB0B020090162A05DA12F10A0FB8BF6FF0090200E01522584B82
:20270C00584F02F01F0141F4F8511980396811F0030F18BF0124C90828BF44F00204BAF190
:20272C00000F18BF44F00404494691F90730EB1A052B04DA8B79A34208BF888864D0DFF83D
:20274C002CE10F2DA5F10F0C25DB0CEB0513A3F1F00C4FEA2C27072F88BF07273E46062EE5
:20276C0088BF06265EF82600042303EB86037646F3581B1A03F0FF06E00824BFC3F30720E4
:20278C000644A00824BFC3F307400644600828BF06EB136601E0002637465EF827E0E0088F
:2027AC000EF0FF0324BFCEF307200344A00824BFCEF307400344600828BF03EB1E630098CB
:2027CC00B6B2ACEB07277E43801A06F1800603EB1623D8BF0120342208F0FF0742437A4373
:2027EC00B2FBF3F04FF6FF72824238BF101C802D80B2888005DA15F1800FB8BF6FF07F05EB
:20280C0000E07F25CD718C71194A12681F280A604FF0000208D340F2FF11814206D240081E
:20282C00521C8142FBD301E01F208880124F11490F38000942EAC00247EA0200C1F8FB0F76
:20284C000026C1F8FF6FBDE8F88F0D4F0B4E494608203760891D0870BDE8F88F3C11005009
:20286C006E62084024220840EC3200209C130050082009403500094000E7A48030100940E6
:20288C00FDFDA400AC3F00502DE9F0411C4615468C4208BF854282BF00230022E5E0002C7C
:2028AC0008BF002D0AD100290EBF00286FF000006FF0000100F0E1F8BDE8F0815FF000082A
:2028CC005FF0000E002C08BF8D429CBF2C1C0025070C47EA01470E0CB44208BFBD429EBF46
:2028EC005FEA044444EA15445FEA0545070A47EA01670E0AB44208BFBD429EBF5FEA0424D5
:20290C0044EA15645FEA0525470847EAC1774E08B44208BFBD4200F29380870847EA81770A
:20292C008E08B44208BFBD427CD8C70847EA4177CE08B44208BFBD4266D8070947EA0177A4
:20294C000E09B44208BFBD4250D8470947EAC1674E09B44208BFBD423AD8870947EA8167F9
:20296C008E09B44208BFBD4224D8C70947EA4167CE09B44208BFBD420DD8E60146EA556609
:20298C00EF01B14208BFB84201D3C01BB14158EB08085EEB0E0EA60146EA95664FEA851787
:2029AC00B14208BFB84201D3C01BB14158EB08084EEB0E0E660146EAD5666F01B14208BF12
:2029CC00B84201D3C01BB14158EB08084EEB0E0E260146EA15762F01B14208BFB84201D30E
:2029EC00C01BB14158EB08085EEB0E0EE60046EA5576EF00B14208BFB84201D3C01BB14121
:202A0C0058EB08084EEB0E0EA60046EA9576AF00B14208BFB84201D3C01BB14158EB0808CA
:202A2C004EEB0E0E660046EAD5766F00B14208BFB84201D3C01BB14158EB08085EEB0E0ED8
:202A4C00A14208BFA84201D3401BA14158EB08085EEB0E0EA34208BFAA423EBF2D0A45EA12
:202A6C000465240A89D3734642461E4617460B46024631463846BDE8F08170472DE9F843A9
:202A8C0081460BF089FA002100B901216B4E30680028FCD06C4D01242D1DEF6A346009B1D5
:202AAC000BF080FADFF89881C7F3072008F1BC0108600BF071FA002100B92146306800283F
:202ACC00FCD02F68346009B10BF06CFAC7F38440C8F8C0000BF060FA0146002001B92046FE
:202AEC00014630680028FCD0ED69346009B10BF059FAC5F38120C8F8D000B9F5C061C8F88D
:202B0C00B81000F0968098F8D80068B9C8F8D410D8F8C000C8F8C800D8F8BC70C8F8C470A6
:202B2C00D8F8D060C8F8CC60D8F8D410D8F8BC60002954BF02206FF00100454605F1C803F3
:202B4C001A6801EB41014018411000EB917002EBA0021A60D5F8C810C5F8C46000291CDD73
:202B6C001E293DDDD5F8CC0030B93429B4BF15391E21C5F8C81025E02A29BABFD5F8C8000E
:202B8C000B381E20C5F8C800D5F8C4003F28B4BF401C3F20C5F8C4001FE0D5F8CC000328B9
:202BAC0012D011F10B0FC6BFD5F8C8000B30201CC5F8C800D5F8C4000028CCBF401E002033
:202BCC00C5F8C400032009E011F1150FC6BFD5F8C8001530201CC5F8C8000020C5F8CC006D
:202BEC00B5F8C400174E30214FF47F4208230090304606F05FFF009404214FF400321123B7
:202C0C00304606F057FFB5F8C80004214FF4F80212230090304606F04DFFB5F8CC002021D8
:202C2C004FF440620A230090304606F043FFBDE8F883002088F8D800BDE8F88300800C40B4
:202C4C001C19002000A00C4000A00C402DE9F043ADF11C0D06F066F86B4C04F1280004F10E
:202C6C006C0103F049FCDFF8A491E06049460BF0E1FA09F01FFB04F134000BF005F9042693
:202C8C004FF47A7200236249206104F18800009606F054FB1F20012108F068F90125002052
:202CAC00ADF806004FF44871ADF80C1008278DF8045080468DF8086001AAADF80A70642097
:202CCC00ADF80E802946ADF8100040F20530FFF7A7FA40F2063002210DF10602FFF7A0FA72
:202CEC004FF442701B2104F14E02FFF799FA40F207300E2104F14002FFF792FA4FF4447081
:202D0C00294602AAFFF78CFA40F2113002210DF10A02FFF785FA40F21230022103AAFFF7C1
:202D2C007FFA40F2133002210DF10E02FFF778FA4FF44570022104AAFFF772FA0BF002F9DF
:202D4C000620A02108F012F90720A02108F00EF93846A02108F00AF90920A02108F006F97B
:202D6C008DF8185003278DF81B504046059031468DF8190005AA8DF81A704FF4816008F036
:202D8C00C1F84FF48060294606AA08F0BBF840F2024029460DF1190208F0B4F840F203406C
:202DAC0029460DF11A0208F0ADF840F2064029460DF11B0208F0A6F80BF02DFA0BF08EFAA4
:202DCC000AF0BCFD06F0B4FC09F0A2F804F0B2FAA0707F2814BF0A200F20052107F03AF829
:202DEC0009F094FB09F0E6FE06F088FE09F0A2FB0AF0A2FA08F02CFFE06849460BF01AFAB1
:202E0C0007B0BDE8F083C046E80B0020BDD60000D5D600002DE9F04F0C46ADF13C0D066884
:202E2C00D0F804B00D900BF011F996F89810012903D10BF03BFA0020BDE0012186F89810FF
:202E4C000BF034FA2078307060687060E068F0612069306260697062A069B062E069F06268
:202E6C00206A3063306B002505714FF0FF37F76010233382708A40F6E3310843014071827C
:202E8C004FF4D072B282B575F57529273776032070763023B376F576317EB77E37F07F035F
:202EAC004FEA211708BF0220716AF269504307FB00FAB1FBFAF7032F11D3F16AB80000EB36
:202ECC00C70081420BD89BF8060001F0C5FE0D9802F0C2F858B99BF8060001F0E9FD0BF05F
:202EEC00B5F886F898500BF0E1F90D9562E0DFF8CC80BAF1000F04BF4046056023D0DFF8A5
:202F0C00C0902946484609F09DF840462946DFF8B480C0F80090404609F094F82A48A94616
:202F2C00C0F80080A846B16A326A274841440AFB092200688A600BF0BFF808F10C0809F179
:202F4C0001097F1EEFD101A82946302208230BF077F80D9806909BF80520099200951B4A77
:202F6C009BF8041001AB06F1340007F02BFD01A82422082329460BF0A5F8012106F16C0002
:202F8C0001AA8DF81C10294608F004FD307878B901A82946242208230BF094F806F1500031
:202FAC008DF81C50294601AA08F0F4FC084800E0A068B0600D980FB0BDE8F08FFC320020F4
:202FCC00D8320020CC320020F83200204D540000D3E100002DE9F04FADF1840D00F0C0FECC
:202FEC0006F044FD0026012804D10AF071FA022808BF012658490868C0F38150012806D158
:20300C0051F80C0C0127010E07FA01F006435348007809F0C1FB524D2C46286038B1FF2266
:20302C0004F1400107467F1E01F8012BFBD14D4909684FF0000901F0FF02FE2A1BD0DFF848
:20304C0024C101F0FF074A460123FF2F0CD0B8427FD903FA07F73E427BD101F0FF0147EA8F
:20306C000909611881F840205CF8041F521C01F0FF07FE2FE9D1092001F0EEFD3948002176
:20308C0024220823606001A80BF01CF84FF0010804F1240001AA8DF81C80414608F07AFC19
:2030AC00236843B3002794354FF0040BBA4608FA07F0064219D119EA000F04BF07F0FF014E
:2030CC0041F4C04105D0E019264990F8400051F82010254802F0F4FBF8B24FF0FF3109F0D0
:2030EC003FFF2368C5F800A001E0C5F800B07F1C2D1D9F42DBD30AA80021302208230AF092
:20310C009FFF0025FF2010210AAB1290174A009504F1080007F056FC16A82822082329465B
:20312C000AF0D6FF04F1600016AA1C9510491D952B4607F043FE0F4951F80D0C20F4F85024
:20314C0040F4005041F80D0C4746C1F8FF7F0A4E376021B0BDE8F08FB43F00500833002047
:20316C00302C002090E50000007FC76789CF00001D9E00000D300940080009402DE9F8436A
:20318C00674C04F124000BF0B5F815460E4600900AF05CFF05F001078146B6F1FF3F0CD195
:2031AC00A06A20B9B4F93600401C06B202E0A06AB0F91C60002084F8A300304608F0D4FE99
:2031CC000326002800F09B80A16ADFF84081814269D0009FB8422ED03FB100990A68904284
:2031EC0009D0096800290091F7D1832E41D048460BF05CF83DE004F1A40009F07BFD009899
:20320C000168AA0802D20A6802600846002202600091009818B948460BF048F828E0C17F02
:20322C0041F00401C17768460AF01EFA0146404607F0BAFFEDE704F1A40009F05BFDA80869
:20324C003ABF606A00680020606248460BF02EF80099C87F40F00400C87768460AF004FAAD
:20326C000146404607F0A0FF009808B1A808EFD28326E07988B9207A012843D024480AF09E
:20328C0043FE022104F1C8000AF0C6FA6078012838D020480AF038FE34E004F1C8000221B2
:2032AC000AF0BAFA2EE0A90803D3616A009100266662C27F0121B9401143C1770AF058FD3E
:2032CC000446002F14BF1448144809F023FC48460AF0ECFFA80801D3009820B9204608F000
:2032EC0067F883260EE0C17F41F00401C17768460AF0BAF90146404607F056FFECE7484649
:20330C000AF0D4FF3046BDE8F883C046F012002059190000F951000001000204010001044D
:20332C00C01200202DE9FC415E4C574D574EDFF860815A4F94F8E410481E0B2861D8DFE8CF
:20334C0000F07B2C43062343062343067664042907D001220A2945F8212C14BF02200320D3
:20336C0004E02021012045F8211C024684F8E200002045F8390C0827C5F8FF7FC5F8F37FA0
:20338C0045F8392CBDE8FC81052914BF09200620002584F8E400356070E094F8E1700120A5
:2033AC00383D002FC5F81B0004BF0620002102D00021F160032084F8E400032045F8010C47
:2033CC0031603068800859D294F8E400012503280DD00021404660220523009106F06AFB2A
:2033EC0094F8E400062814BF0A200720D1E702200090002160220523404606F05BFB0420D4
:20340C00C7E709F080FFBDE8FC812249002622480E60012505600E2001F04AFB022008F0E6
:20342C0069F984F8E45084F8E360BDE8FC81002038600C2578601FE0194800680068014655
:20344C00202088472C3D41F61D560F2000214FF4C072072345F8010C4046C5F80360022538
:20346C00009506F027FB404600214FF4C072072306F00AFF0120386084F8E45004F1780078
:20348C000AF03CFABDE8FC8139400C4038600C4000A00C402C500C4004800C4034600C40C1
:2034AC00A00100101C1900202DE9F84F9A4693460E4681460AF0CAFD514C0090B4F93610E8
:2034CC00B4F934000AAF401A40F6F8710140082980F28780B4F93400401C6FF31F30A0864E
:2034EC00B4F9348009F096FB054609F1700009F001FCAE6085F81EB0C5F804A0A5F81C8037
:20350C00C5F80C9097E80C0041A003C8002605F110071040194087E8030004F12400EE7743
:20352C000768002F50D1294607F03EFE002851D0A9F89480E87F40F08000E87789F8966033
:20354C00607A40B1607830B10120A07266722779A671781C207100980AF0A8FEA06A00288A
:20356C004BD1607860BBE079012846D00AF06EFD0646207A00BBA86806F026F9224B214996
:20358C00E2681B68086040B930460AF08FFE04F1C80004210AF040F92FE00968D26804F130
:2035AC00A400891AB1FBF3F10AF0C8FE04F1A4000AF0A4F930461EE0144901200870F9E7EE
:2035CC0019200AF0ADFB18E004F12400294607F0EBFD48B9B4F9340000F6FF706FF31F30AD
:2035EC00A0866FF0010805E0A9F89480E87F40F08000E87700980AF059FE4046BDE8F88F86
:20360C00C01200207428002090EE000007330020F1EFFF9F20000000B0B5456884684F48E5
:20362C00297BADF1180D012916D0217E627E4C4B2F7E0143009143EA02010191494937F0F4
:20364C00010718BF081CA27E1043029095F88D000322FF2811D00DE0677E217E3843A37E02
:20366C00019041F00041009143F000403E49029095F88D00014304220391FE204DF8220081
:20368C00694605F1900002F037FFC5F89C00002808BF00205FD0287B344951F82000012878
:2036AC002BD02068B0F1804F14BF22220A22217ED5F89C0008F000FC2068B0F1804F14BF01
:2036CC0021220922617ED5F89C0008F0F5FB2068B0F1804F14BF24220C22A17ED5F89C0079
:2036EC0008F0EAFB95F88D10FF2933D02068B0F1804F14BF23220B2228E02068B0F1804F4F
:20370C0014BF21220922217ED5F89C0008F0D4FB2068B0F1804F14BF22220A22617ED5F8A6
:20372C009C0008F0C9FB2068B0F1804F14BF24220C22A17ED5F89C0008F0BEFB2068B0F184
:20374C00804F14BF23220B2295F88D10D5F89C0008F0B2FB012006B0B0BDC046000480A0A3
:20376C00004000800004C0A00020008014E600002DE9F04305466E68AC680F46ADF1340DCD
:20378C000AF064FC96F8D910241D012903D10AF08DFD002084E04FF0010986F8D9900AF0DB
:2037AC0085FD4FF00008C6F888803869306178697061387E3076387B3073387830707868A8
:2037CC0086F8A480706078694146092828BF494686F88C10207A01F03FFA284605F0F2F831
:2037EC00E07D86F88D002846FFF716FF50B9207A01F05EF90AF02AFC86F8D9800AF056FDAD
:20380C0045464CE001A84146302208230AF018FC06956078CDF80080234A0990217801AB27
:20382C0006F11C0007F0CEF801A84146282208230AF04EFC05951D49606801AA4346079030
:20384C0006F1380007F0BAFA307878B901A84146242208230AF036FC8DF81C9006F16C0048
:20386C00414601AA08F096F8114800E0B868B06004F0E4FEC6F8A000307B012808D1D6F86C
:20388C009C000C490AF0D6FCD6F89C0000B18560094A06F1C40004212B4608F083FD2846D5
:2038AC000DB0BDE8F083C046815F000023900000E3E10000F1A7000035E000002DE9F041D6
:2038CC00424C474D8046C8F38140401E02D0401E2AD025E0284620300168880C20D24FF4FB
:2038EC00804020603A48D0F802204B0AC1F3033703F0800322F08F02134347EA0302C0F870
:20390C000220D0F801300E1266F30303C0F80130026801F0E70722F0E70247EA020102E0BE
:20392C004FF00041204601602A4E06F108000068C0F3C0070FB94020A0624FF4007020647A
:20394C000AF07EF940F0300084F8C800C8F3815038B3401E03D0401E1ED002211DE0012011
:20396C0009F0D4FA07460420394605F0BBFE042009F0CCFA8742FAD1366826F07F4007F0F5
:20398C0071FE15480068036807214FF06022300E98474FF4806020600321042005F0A2FEF6
:2039AC0006E00420012105F09DFE0C4807F05AFE284600680B4947F6180700F03F0084F86B
:2039CC00CB0F094E0F803068BDE8F08140A00C400A600840A83F0050B4010010BD37860019
:2039EC006C13005070B00C402C2009402DE9F047464C04F11000D0F80080D8F80060ADF1F1
:203A0C00280D0AF023FB96F87010012903D10AF04DFC002074E0012786F870700AF046FCC8
:203A2C00394D286930602B7D3371287F3073687F7073A87FB073286A30614FF0000986F840
:203A4C00249004F128023262A86AE96AB061AB8CF1612069B38208F088F8E061002804BF92
:203A6C00391C404625D0DFF8ACA00AF10C008CC869468CC18CC88CC10DC881E80D0004F50B
:203A8C007277049704F17403069304F1300208921F480290404607F041F8002808BF03210E
:203AAC0006D0206A6946FFF7B5F9206228B90B21206904F02FFFC84621E00A2001F0CCF81F
:203ACC0004F138074946384608F0BCFAA76030795746002804BFA869B06009D004F5B4709C
:203AEC00B06007F130016C2204F5B47002F06AFC307B052803DA37F81000B1680860404683
:203B0C000AB0BDE8F087C046F41C0020200500202DD60000F4E400002DE9F0430646880F41
:203B2C00ADF1140D7FD304F0B7FD434D4FF000081C35C5F800803D4845F81C0C012002F05E
:203B4C00BEFD3B480AF0E0F93C48434640F60A0200F13801438790F84440C0F83C8090F8FD
:203B6C0045700A8004F0F00480F8444007F0F00444F00104B76880F8454081467B803C1DBB
:203B8C0000E03C1D276817B138888242F9D12160607A00F0F000607209F124000AF0AAFB71
:203BAC0080680088D21F82421DD0521C82421AD006F120000788B7B196F82C2096F82D70B8
:203BCC00C6F8248002F0F00286F82C2007F0F00242F0010286F82D20C9F83C00487B738429
:203BEC0000F0F0004873B068694608F0A3FF68460AF01EF8B06803F0E8FA28680028FCD08E
:203C0C00C5F80080012009F081F9012808D0607A00F0F00040F00100607206480AF074F954
:203C2C00B06845F81C0C05B0BDE8F08301010E04591900002D8E000000100440C0120020A7
:203C4C002DE9F04F0C464549CA7AADF12C0D84460592487B09900D7900958A7A488B4B8A84
:203C6C000E7B91F805A091F802800492B1F846E008904A7A088B0392CD7807900A7AC88ADB
:203C8C0002920F6A0690CA79888A01928A79E146A9F54079B9F11D0F10D8DFE809F05B55DE
:203CAC0053514F4D4B494643413F3C3A380F34312E2B2923201E1C0F19181716BCF1280FA9
:203CCC0049DA604606F080FC21E0099EB246D046CDF814801DE00898079007980690DDF850
:203CEC0018E005E03831086820608888A08032E070460AE0B1F8440009E0B1F8420004E0FB
:203D0C00B1F8400001E091F83E00034612E0208021E0059804900498039001E03231E2E7BD
:203D2C00039802900298009006E0019A87310DE068310BE01846EAE7009D0BE02C31D2E7A9
:203D4C00276008E0583100E048311022204602F039FB00E025700BB0BDE8F08FA00F002025
:203D6C002DE9F041444C94F8E700ADF1280D00286FD1394F387B01250021242284F8E75037
:203D8C007E6884F8E6000823C4F80C6101A80AF07BF9002604F10C00069601ABADF81460DC
:203DAC002E490796324607F0CFFA2D4904F1300001AB324607F0C8FA2A4904F1540001ABCB
:203DCC00324607F0C1FAB868014628468847DFF89C8025487B7B0078D8F80410C1F38157CB
:203DEC001BB1032F03D184F8E150032F16D0022F14D0012F26D103201D4C009031464FF012
:203E0C0040521C23204605F055FE009531464FF400720923204605F04DFE13E0022007F078
:203E2C0081FC032F0CBF4FF47A7142F21071114800685434B1FBF0F120460AF07FFA204604
:203E4C0009F05CFDD8F80000C00802D2304607F069FC0AB0BDE8F081C8ED0000D77E0000EC
:203E6C00A9690000E170000008330020B03F005000A00C4090EE00001C190020F8B509F0D4
:203E8C004BFB3F4E3D4F0446A00823D3B96A09B33D4600200B698A69A86204EA0300104398
:203EAC0040F0020006F1080288610B6910689843106001F1100090E80C0030681A1C90437C
:203ECC00306005F1300007F06FF9022105F1C80009F0A2FCB86AA10814D200F110020CCABF
:203EEC00002122400B4008BF002A0BD0016985690C40F8622C434FF48041846107F1C80006
:203F0C0009F08AFCB86A002837D107F1240420460AF0F0F9051C30D0F868E968884226D1C8
:203F2C00A86805F051FC17490860E0B906F1080128690A6810430860326805F1100393E8E6
:203F4C000300081C1043306000233361A86846F80C0C06F1100000680028FAD0204609F06E
:203F6C0083FBBD62F8BD086804F0C4FBF8BD07F1C8004FF4805109F04FFCF8BDC01200204C
:203F8C000C100440742800202DE9F84F07463D687E680AF05BF82A6B117939B10AF086F9F5
:203FAC00296B032200200A71BDE8F88F012414710AF07CF907F06EFB384602F019F92C4806
:203FCC0004602C4F3C6030680022214607F01AFB294B2D4ADFF8A490186811689B46904687
:203FEC0040B939B1484600680AF060F8D8F80010CBF80000DFF888A0DAF800704FB941B1AC
:20400C00484600680AF052F80146DBF80000CAF80010002814BF816800214FF6FF70009025
:20402C00AB8B3068002209F05FFA306808F092F9D8F80000134D78B1DAF8001030688A6852
:20404C00214609F0B7FCD8F8000028B105F13C00016841F0210101603F20A8642C601C2016
:20406C0009F018F81C2006F005F82046BDE8F88F001A044328200860B0210020F83200201E
:20408C00B421002034100240FC3200202DE9F04104466768A5680E46ADF1380D09F0D6FFD9
:2040AC0097F8DC102D1D012903D10AF0FFF800205EE04FF0010887F8DC800AF0F7F8F1687D
:2040CC00204603F0CBFF0028F1D13078387070687860307A002130220823F86001A809F085
:2040EC00AFFF0694287A00260990234A0096696801AB07F1100006F065FC01A8282208230E
:20410C00314609F0E5FF05941C49E86801AA3346079007F12C0006F051FE01A824220823B3
:20412C00314609F0CFFF8DF81C8007F16000414601AA07F02FFC387838B907F17C003146DC
:20414C0001AA07F027FC0E487860C7F8BC603E72C7F8C060286800F07FFD204605F062FC41
:20416C00084A07F1C8000421234608F01BF920460EB0BDE8F081C04605490000898C0000E4
:20418C00CBE10000DDDC00002DE9F047ADF1180D01F0A0FC3A4D4FF0030908274FF6FF7854
:2041AC00002605F13E0A2C4608F0A2FE20BB009601A80DF106016A4607F0A9FCE0B9BDF8CC
:2041CC000400102814D160789DF8061088420FD100980188884509D14088C00B08D304202B
:2041EC0005F12002014607F061F801E005F012FB009808B109F048F9208A41082DD320F093
:20420C00010063792179208253EA010225D073B9207A637A8DF8070005F132018DF808302F
:20422C000A680DF109031A608988998001E08DF80790A07A8DF80F00E37A8DF810300DF187
:20424C00070009F067FE38B1636AA77023B11A6812B1196838468847208A810807D320F01C
:20426C00020020825146304603F0C4F9208AC1089AD320F00400208206F0F8FC94E7C046D0
:20428C00A00F00202DE9F84F00298346009106DD024600980021401E42F8041BFBD1009864
:2042AC00DFF8C880DFF8CC900028C8F800B012DD2F48009C0768002537F8020B38B1D9F87C
:2042CC000000AE003158002088474BF80600641E05F10105F0D1284F41460120D7F80080B6
:2042EC00C880B8F1000F22DD4FF0000A00980127002817DDABF104050446002655F8040F19
:20430C00B0F1FF3F04D0D9F800107158884728600021B0F1FF3F08BF0121361D641E01EA34
:20432C000707EBD137B90AF1010AC245DEDB04A008F066FF0D4900200860BDE8F88FC046E0
:20434C007864632E72756E74696D652E537461727475703A20276D61785061737365732762
:20436C0020657863656564656400C046DC170020E4EE0000E8EE0000E0EE00002DE9F047FE
:20438C0006467468B56809F061FED4F88810002963D009F08BFF2968486820F00200486036
:2043AC002968486A20F003004862D4F8A07068692969084379680968C1F804052968486911
:2043CC0020F00100486128684FF00108C0F82080304608F023F8D4F88800D0F8049009F0B5
:2043EC0035FE04F1D8078246387850B119F0704F02D1042007F07EF9022007F07BF9002057
:20440C003870504609F052FFD4F88810087C042803D003200874D4F888102A696869D4F8EE
:20442C00A0304746104307FA00F258680068C2622868B0F1804F14BF0A480B480F6800682A
:20444C0000258204A7EB9250401E08603046A268C4F888509047BDE8F08709F027FFBDE8A0
:20446C00F087C04608050020380400202DE9F0430646ADF11C0D09F03DFE07F0ABF84FF0C1
:20448C0000090546CDF8009009F0D4FD30F0010002D00098A84202D16FF0040059E07068E1
:2044AC004C4658B1B0F1FF3F05D001A907F07AF830B107464CE04FF0FF3000E020460190EF
:2044CC0008F008FC0199012701EB000800E001936868019900F0F4FC00282ED003A806F099
:2044EC0079FDD8B99DF8100002A906F059FD88B9B368BDF808009DF81210059A984748B1C6
:20450C009DF81270B773BDF80800B081059B33614F4612E00599684607F04AFC0198641C03
:20452C00B0F1FF3FD4D00028D2D008F0D3FBB8EB000302D001989842C9D2009905F108003F
:20454C0007F0A4FE24B1686803F056FD641EFAD1384607B0BDE8F083F0B5ADF1340DFFF7B7
:20456C00FFFB304908682822082340F00200086001A8002109F0ACFD2B4E2C490524002397
:20458C0001AA079406F1C80006F018FC00213022082301A809F054FD0025FF271921244A7C
:2045AC00ADF81C5001AB099706F14C00009506F009FA2822082301A8294609F089FD1D494F
:2045CC0001AA2B4606F1FC00079406F0F7FB3022082301A8294609F033FD01241A21164ABF
:2045EC00ADF81C4001AB099706F16800009506F0E9F912492A4606F1A400134606F0A4FE3F
:20460C000F4809F081FCB47186F8A3507571F57135727572B5724FF6FF7075610DB0A6F845
:20462C00A000F0BD00200940C012002095D7000035C8000011550000818E0000B9C500006A
:20464C00F9510000BFB5384C0746401E3CD0354D401E21D0801E012833D9801E02D0801EA3
:20466C0025D05BE0284609F02BFB10B9284609F043FEE0680A210022054606F061FD0022AA
:20468C0028460F2106F05CFD00222846152106F057FD03F017FB41E0284609F011FB10B9AF
:2046AC00284609F029FE002009F01AF836E009F0FFFA04F10C0000680A21012206F040FD43
:2046CC002CE009F0F5FA29E00F20052105F0C2FB4FF441706946FFF7B3FA9DF800009DF85A
:2046EC0004308DF808009DF805108DF80E309DF801508DF80F109DF803008DF809509DF8EB
:20470C0002308DF80D0002AA8DF80A3000208DF80C0008218DF80B0002F088F9277000905A
:20472C00BFBDC046700C0020E80B00202DE9F0471C46904689460646B4F1FF3FADF1480DC6
:20474C0009D044B131496B4608A8224607F06AFF08A9022001E00021032003918DF81000BB
:20476C002B4FCDF818903868CDF81C80371809F0C1FC2025EFF3118A029085F31188424653
:20478C004946304608F0C6FA031C33D1002C04BF8AF31188002036D009F002FB0646029826
:2047AC006946C0F818D0384609F086FC029806F019FE9DF810000024022802D1039803F0AA
:2047CC00E9FA8AF31188304607F040FFEFF3118385F31188039810B109F0AEFD0394029870
:2047EC00846183F311889DF81000002814BF059B231C07E0039818B109F09EFD00200390A8
:20480C008AF31188184612B0BDE8F08725C0000098EE00007CB50446084603F0B7F9344EE1
:20482C0002461821304607F01BFB08F08BFB40F2FF32002380B22C210090304605F03AF9B7
:20484C0009F006FA1C210246304607F009FB08F06BFB02461421304607F002FB08F080FEA2
:20486C0002461021304607F0FBFA204603F014F802460C21304607F0F3FA204608F058FE69
:20488C001C4D400040F020002870204608F05CFE40F010002870204608F05CF902462821A7
:2048AC00304607F0DDFA204608F066FE400040F06000E870204608F06BFEC00040F0800087
:2048CC0005F8080C204608F06FFE800040F47C40A5F89300204607F0D9FA02460821304639
:2048EC0007F0BEFA4FF48000A5F2091108607CBD00A00C4049A10C4098B5354944680968DE
:20490C008068496800688847324A0121916140B1237AFF2B05D0FF214009217253D2042158
:20492C0049E0207A00284ED0401E17D0401E02D0FD3848D044E05368D4F8B4000370D4F802
:20494C00B400401CC4F8B400D4F8B8707F1EC4F8B8701CD0012F88BF09212CE0D4F8B070D1
:20496C007F1EC4F8B07014D1D4F8B8707FB10220D4F8A8102072097C012F4FEA410141F010
:20498C00010142F8041C94BF03210B2114E004210FE0D4F8AC0000785060D4F8AC00022FBB
:2049AC0000F10100C4F8AC0005D2D4F8B87017B90521002020720220116009F035FC98BD0C
:2049CC00FF20207298BD04F12C0005F075FB98BDAC010010042800402DE9F84302F003007B
:2049EC0001F0030444EA001403F0030044EA00242E484FEA122808F0FF0E4E08A0F1300024
:204A0C0004604FEA112404F0FF05A146856009F0FF074FEA1325C0F80CE005F0FF0CC0F828
:204A2C0010C04FF0000004460AD289080ED319F0FF0F0BD0790828BF641C7F08FAD105E0B2
:204A4C0027B1790828BF401C7F08FAD1510877460AD291080ED318F0FF0F0BD0790828BF97
:204A6C00641C7F08FAD105E027B1790828BF401C7F08FAD1590867460AD299080ED315F014
:204A8C00FF0F0BD0790828BF641C7F08FAD105E027B1790828BF401C7F08FAD10249096858
:204AAC0008714C71BDE8F883F4320020381002402DE9F843044609F0C9FA81462D48021916
:204ACC0092F8ED10491ECFB2002F82F8ED704BD12B4D05EB84052E78698836F07F07884637
:204AEC001AD1F10911D24FF08054D4F8B801806901464046884704F5DC742068406B014602
:204B0C00404688470228F8D121E000EB8800D0F80011002088471AE04FF08054D4F8B80173
:204B2C00006A014640468847D4F8B801806A014640468847D4F8B801006B014640468847CC
:204B4C0001210D4A0D48116001688908FCD306F03F003F2801D0FFF7ABFF687800F03F0025
:204B6C003F2801D0FFF7A4FF484609F09FFBBDE8F883C0461C19002028200860282008407C
:204B8C00A0E60000B0B5324C6078410809D320F0010060700A20014605F05CF905F054FCC2
:204BAC0060782C4D810807D320F002002F786070062F01D103F032FF2078A178884244D0F2
:204BCC0007F018FCA7782078790803D341083CBF0021A180B90803D381083CBF0021E1808D
:204BEC002978022903D108F07BFDA7782078B90808D3810806D22978062903D003F00EFF42
:204C0C00A7782078790808D2410804D3002007F041FCA7782078790806D3410804D20120B1
:204C2C0007F038FCA778207810F0030F0DD067B904F10800054609F043F828B9284609F0B3
:204C4C005BFB0020E080A0802078A070B0BDC046FC200020E80B00202DE9F041064609F05C
:204C6C00F5F92D4D8046A91991F8ED00421C002881F8ED204AD1294C04EB8604277807F017
:204C8C003F003F2801D0FFF7E7FF607800F03F003F2801D0FFF7E0FF668837F07F001AD122
:204CAC00F80911D24FF08054D4F8B801406901463046884704F5DC742068406B01463046FE
:204CCC0088470128F8D121E005EB8605D5F80011012088471AE04FF08054D4F8B801C06902
:204CEC00014630468847D4F8B801406A014630468847D4F8B801C06A014630468847012104
:204D0C00074A0848116001688908FCD3404609F0CDFABDE8F081C0461C190020A0E600006F
:204D2C0028200860282008402DE9F84F0D46064628687468D6F80880002855D009F086F9A4
:204D4C00D4F8881021B109F0B1FA032028744BE001272F74C4F8885009F0A8FA94F8A40059
:204D6C0038B194F88D202249D4F89C00114306F0A9FCD5F804A009F069F904F1D80999F810
:204D8C000030834653B91AF0704F02D1042006F0C9FC022006F0C6FC89F80070584609F025
:204DAC0085FAD8F80010486840F0020048603046294600F0B7F9D8F80010486940F00100B7
:204DCC004861207830B9616804F16C05284600F077F810B13846BDE8F88F3046FFF7CEFA02
:204DEC002846002100F06CF80020BDE8F88FC04600000680294A2DE9F041804601262848D5
:204E0C0016600768002FFCD0294C2A4FC020443C206007F1080001682348890804D2016834
:204E2C00090C41F0F00100E072211E4D85F85412002111638768384602F004FA4046394677
:204E4C00FFF7E8FC1C48B038816D40F20F226FF31F418A4212D901680068C1F30363C0F3B8
:204E6C00034003B15B1E072805D006280EBF0720801C00F00F0043EA001028703846FEF7AD
:204E8C001DFD0E4814380068C1680220884740202060064F3E60BDE8F081C0461010094070
:204EAC009402224302600840AC3F00509404604244600C40A83F00506C130050B401001011
:204ECC002DE9F0410D460646B5F1FF3FADF1380D09D045B12B496B4605A82A4607F0A2FB74
:204EEC0005A9022001E0002103200391264F8DF8100038682024EFF31188371884F3118855
:204F0C00708980BB002D04BF88F31188002036D008F046FF064609F0EDF80290C0F818D08E
:204F2C0006F060FA3846694609F0C6F89DF810000025022802D1039802F02CFF88F311889E
:204F4C00304607F083FBEFF3118384F31188039810B109F0F1F903950298856183F311886E
:204F6C009DF810000BE07089401E7081039818B109F0E2F90020039088F3118801200EB06F
:204F8C00BDE8F0817DC00000A0EE00002DE9F04115460446A869A060686A98460E4608B962
:204FAC002A4800686062286A002806BF28480768071C09F057F8EB69A3B9002808BF391C8C
:204FCC0003D03F1841427F1E39400246E161606AE169434602F06EFD2062206AB8B90120E0
:204FEC00BDE8F081002804BF2362391C0BD01B1841425B1E01EA030020623F1AE869C019CD
:20500C00E061E0690140E1614FF0FF306062A6622869E06268692063A86A6063A88DA087E7
:20502C00A08F012803D10B49C868401CC8602046414601F053FF0346404608F0B7F8002862
:20504C0014BFD81C0020BDE8F081C046B4EE0000B8EE0000901F002070B505684468A87DC7
:20506C00ADF1180DC00838BF002204D3E079012240F4C0400090287EC10805D3617A41F412
:20508C00C0414DF82210521C01090DEB820204D3217A41F4C04142F8041B00F0030001287B
:2050AC0005D0022808D1A07A40F4C04002E0A07A40F0004042F8040BFE2105F188001160FB
:2050CC00694601F019FAC5F89400002808BF002025D0A97DC90803D3E179292206F0ECFE6A
:2050EC0005F118063078C10806D3D5F89400617A272206F0E1FE3078010906D3D5F8940000
:20510C00217A282206F0D8FE307810F0030F05D0D5F89400A17A252206F0CEFE012006B0E7
:20512C0070BD7047F8B58C4645688468DCF8007095F88C10B8B288401FFA80FE2068B0F108
:20514C00804F14BF244B254BDCF80820244832B995F88C108E00815905F1A60207E095F8CC
:20516C008C108E00811951F8081C7244521E99605A6021683A0143F6F077103A08311740DB
:20518C0019609A683A439A602368B3F1804F14BF144A154ADCF804C0BCF1000F04BF805993
:2051AC0004F10E0605D0801950F8100C0EEB0C06761E90601660516090680743976021698F
:2051CC00D5F8A06060690843716809688862586A40F003005862F8BD0005002030040020D1
:2051EC002CE600001005002040040020042998B54DD1274C04F1240009F07CF840B994F8E2
:20520C00A300400838BFE06804D3D4F8880000E0C068E06041681F4A0978116041681268BE
:20522C000978914206D0876927B120A20CCA6FF0FF01B847022006F075FA1120FFF70CFDC3
:20524C000120E071E068011D007C10B16079012804D00E20FFF700FDE168091D08680E4900
:20526C00083007680FB947681FB10020C8610B4F0F600B4A40F2FF7000271060094C8F6150
:20528C0009484C6108F040FE192004F0F3FE98BDC0120020D021084000100440510007067E
:2052AC000000046002000040253B000000000000000000021EF0040F14BFEFF309816946CB
:2052CC008869EFF3118102B400B5DFF89CE0F047284A116801EA000010605DF804EB1EF0D0
:2052EC00080F03D101BC80F31188704704BC1EF0040F14BFEFF309816946A1F1200114BFE2
:20530C0081F309888D464A604FF08070C8611A488861184B1868086040F20110186070479F
:20532C0002B401B4EFF3148100291CBF002282F3148802B402B4DFF834E0F04701BC01BC40
:20534C0000281CBF022181F3148801BCDFF820E0F04704484FF08051016001BC80F31188BA
:20536C0000BF00BF04ED00E0298F00000BE20000B3E20000282000202D5300002DE9F8435F
:20538C000646B0680D4600F1080874686868002710B9E868002850D02078012814D108F077
:2053AC0055FED4F8BC1049B1D4F8C0108D61C4F8C05008F07BFF0120BDE8F883C4F8BC502B
:2053CC00C4F8C05008F072FF022006F0ABF904F160004FF0FF318146FFF772FDD8F8000010
:2053EC0004F026FE3046294601F048FA0546D8F8000004F03FFE207888B9B5F1FF3F08D090
:20540C0004F17C004FF0FF31FFF75AFD207A48B110E003202072022006F06CF90AE0B5F10E
:20542C00FF3F01D0012705E00320207204F12C0004F042FE484602F0DFFD3846BDE8F88340
:20544C002DE9F0472A4F81467868D9F80060D9F804A0396800EA01085FEA9810C7F80C805D
:20546C002CD3254D23482968006807F075FE234C306B2168002229600179226007291BD08C
:20548C0008291BD01E4D286808F028FD60B9286807F054FEDAF800308268206001211846EE
:2054AC0008F088FA052000E00620316B0871B268316B4846904701E0082101715FEA5800EE
:2054CC0014D3386820F001003860316B0879082808D000BF04200871B0680246484690474A
:2054EC00BDE8F08706F16C0002F086FDBDE8F08770100240FC320020B0210020B42100209A
:20550C00F8320020F8B508F0A1FD2A4C0746103CD4F89C0010F4602F2BD0D4F89C00400C39
:20552C00C5B2680807D2A80803D2E80828BF022502E0012500E000256E1D70B203F0C4FCAF
:20554C00D4F89C3005F111010120884023EA00013846C4F89C1008F0A9FE04EB8500D0F8E7
:20556C008C704FB1D4F8880013A20CCA3146B84702E0384608F09AFED4F89C0020B104F1B0
:20558C00FC00002108F048F994F8A30080080FD3D4F8987037B1D4F8880009A20CCA6FF020
:2055AC000101B84794F8A30000F0FD0084F8A300F8BDC046D01200200000000000000008DE
:2055CC0000000000000000802DE9F0412D4C0546A41C20781F4690460E46ADF1380D012841
:2055EC0003D0FEF7B9FF012020705EB1B8F1000F6E6007D0C5F8088008F028FD617819B1FD
:20560C0008F054FE002038E0491CC9B2617008F04DFE01241FB9684608F008FA6F4638680E
:20562C0028607868E860387A2874F8686861386900B1A8610021782205F1200001F08CFD91
:20564C0005A800212422082308F03CFD8DF82C4005F13800002105AA06F09CF905A8002186
:20566C002422082308F010FD05490B9505F17000002205AB05F068FE28460EB0BDE8F081E5
:20568C004DE20000C01200202DE9FC470AAF3F8882460C4608469946154601A906F014FDB1
:2056AC00012808BF01204AD0BDF80400DFF8948042F60211FF26401A2ED048F26311401A3F
:2056CC00012827D827BBB9F1010F1FD1BDF804104AF666200027884202D12978032913DAFD
:2056EC002978E2681170BDF80410884205D0E1684046884218D13E4618E0E1684046401CA1
:20570C00884211D1012611E080270DE00D270BE00B2709E00A2707E0009750464B462146AE
:20572C002A4604F035F90746FF2E07D04046001D006818B1016809B1304688473846BDE81B
:20574C00FC87C0464C1E0020F8B508F025FC08F02FFC044604F00C000C2845D0E0081ED2D6
:20576C0006F02EFC234E376805460120014607F02FFB31686943884211D21F4C8220B0FB6F
:20578C00F7F0291A204608F0D9FD204608F0B6F80120FCF763FE204607F0ACFA25E02009ED
:2057AC0022D21648610939BF016821F00101016841F0010102460160D2F898004FF08054F3
:2057CC0040F00300C2F89800D4F8B8018069014620208847D4F8B801094C806B216880475F
:2057EC0001202060206800E030BF08F0DBFB02F001FAF8BD90EE0000281900208C21084061
:20580C002C200940F0B5ADF1140D04F0DDFC041C48D04FF4802010216A4603F077FC041C34
:20582C003AD00098214E410F01D0864200D200241F490198204D814204D82946563981429E
:20584C0002D228E0000B26D134B31A4810216A4603F05CFC041C1FD00098410F01D0864259
:20586C0000D200240198010B15D02946814212D394B103F081FA114C054610214FF4F420A2
:20588C00103C224603F042FC20880027A84208BF01273C4604E000244FF4F42002F05EFD41
:2058AC0005F050FE204605B0F0BDC0460050002001F0010010100400FFFF0100502D0020A9
:2058CC00F8B50D46EEB2290824BF26494D40264BB400195985EA01020240C2F3006C234A33
:2058EC0000EA05078143FF323A4000F4E0270A43B7F5E02F01D1510E15D300F4E0215CEAE0
:20590C00010710D002F4E027B7F5A02707D0B7F5803704BF22F4003242F4A02203E022F4ED
:20592C00803242F4C0221A51114CC10D04D3A4F18001C5F380528A55000E11D308F086FB3A
:20594C00290E03D201210022B14002E00121B1400A46503423688B431A43226008F0A6FC5F
:20596C00F8BDC046006000A000100840007F077F8020024070B5294C294D012806D028BB2F
:20598C0021460020491C07F0F7FF1FE02146012007F0F2FF0878022811D0491C002005F0AE
:2059AC0081FB28680A210022064605F0C9FB002230460F2105F0C4FB06F080FD06E008F0B0
:2059CC0021FB4870491C002005F06CFB21460878012822D1286861780546490834BF0022E9
:2059EC0001220A2105F0ACFB6078800834BF0022012228460F2105F0A3FB6078C00802D274
:205A0C0006F05CFD04E0284604F00AFF04F0FCFC6078000901D302F089F970BDD021002089
:205A2C00F40B00202DE9F0410E46294990461C4606AF8C4672680878BB8851783F881278B8
:205A4C00002502EB012242F62321521A29D0521E052A18D9921F0CD0263A34D1072F30D864
:205A6C00C7F10700984298BF83B2674407F1080121E0B84225DBC01B9842D8BF83B223802A
:205A8C00DCF804000BE0F06808F016F880B2B84217DBC01B9842D8BF83B22380F0683918EE
:205AAC000AE0082F0DD8C7F10800984298BF83B207EB0C010F31238040461A4600F082FC78
:205ACC0003E0072501E025800A252846BDE8F081FC1400202DE9FC4706F000FC284C00255E
:205AEC00A5704FF6FF70A08205F0DCF8234F2A462070012039461346009004F1A80003F05B
:205B0C001DFC4FF002082A4604F1CC003946CDF80080134603F012FC04262A4604F1F00049
:205B2C0039460096134603F009FC04F14809102248462946E67001F00FFB04F1580A1022A4
:205B4C005046294601F008FB04F120073D602572072065721021A0724A46E572404605F04D
:205B6C008BFB03201021524605F086FB30463A46014605F081FBBDE8FC87C0464DD7000031
:205B8C00A00F0020F8B5264E244F264996F90040B7F9005031F91410401B03B2002B4FEA96
:205BAC00E10258BF002002D55B4208201BB2994205DC5B1A8A1840F004001BB212B2491065
:205BCC00994205DC5B1A8A1840F002001BB212B24910994203DC891840F001000AB2010978
:205BEC0007D247F6FF718B1AAB42A4BF2A4411B206E0A2F50041A942DABFAD1A29B20A49B6
:205C0C000A4A39801156641864B2002C03D4582CC8BF582400E000243470F8BD0433002034
:205C2C000633002040E400000080FFFF98ED000038B504464A78284D087800EB0220ADF838
:205C4C0000006A88BDF8000090423AD1BDF80000891C000107F0C2FE6888AB88401C81B2F0
:205C6C0069808B4229D103F091FBE0B12046002102F054FA06F0B4FD29780843287005F071
:205C8C00E1FD07F04DFB90B12878410805D3AB692146032000229847287810F0060F06D0AF
:205CAC0007F0EEFF03E02046012102F037FA00242C7007F085FC6C8038BD204602F034FCC5
:205CCC0038BD00206880287007F07AFC2046032102F024FA38BDC046FC170020FEB5FCF748
:205CEC00B5FF274C002504F1880607F0F3F8002830D1009501A80DF106016A4605F0F0FEE8
:205D0C00D0B9BDF80400102807D160789DF80610884202D1009808F06FF9009860B107F06D
:205D2C008FFB09E0206907F0ADFA071C04D007F06BF9384607F03CFB206908F0CFF800284F
:205D4C00F0D0FEF71FFF2078062801D100F062F907F080FEA088C1080FD320F00400277886
:205D6C00A080022F09D1304608F0C6FA2078022803D10F20012104F06DF804F085FBB4E76F
:205D8C00E80B00202DE9F84F804608781C4616460AAF022831D02348DFF88C90D1F804B0C4
:205DAC008569102282464946584606F010FE002740B9002D33D08AF801400120414632468B
:205DCC00A8472CE009F110015846102206F0FFFD10B925B30220F1E709F120015846102269
:205DEC0006F0F5FD90B9012C05D13078002818BF8AF80A0013D1802711E0486842780078D2
:205E0C0042F6021500EB0220854201D00A2706E0388832460090404603F0BAFD07463846A8
:205E2C00BDE8F88FFC17002060E60000264838B550380468B4F1FF3F08BF002407F0C4FDDC
:205E4C0022481749002510380560012008601549086003F0FBF91448006820B1134800680C
:205E6C002046FEF7C7FF124812490560124C0A686FF35B4244EA0200086010490868C0F3F8
:205E8C000130012806D10A680D48104040F400320A6008600B4908680028FCD138BDC046C2
:205EAC005C600C400822044380012843000120438C210840482003400000390104000940E6
:205ECC00FFFFFCFC0C0068426C130050940460422DE9FE4F0CAF3D8881468B46084698465A
:205EEC00144601A906F0F0F8012808BF01203DD0BDF80400DFF878A042F602110026FF2757
:205F0C00401A21D04AF2C031401A0BD0401E19D1B5B9B8F1010F11D12078DBF80C100227C7
:205F2C0008701BE065B9B8F1080F07D12168656850460E300160012745600FE00D260BE0C7
:205F4C000B2609E00A2607E00095484643465946224603F01DFD0646FF2F06D050460068F6
:205F6C0018B1016809B1384688473046BDE8FE8F401B0020B0B501468B681C68E26948689B
:205F8C002262520824D2D0F8A01049680A685D69D2F80415294206D01C68616A21F0020139
:205FAC006162C2F80455D2F8042519690A4230D01A68516A21F001015162D0F8A0205268F9
:205FCC00196912683830C2F8041504F075F8B0BD1C68626922F001026261D0F88870AFB961
:205FEC00626822F0020262601C68626A22F003026262D0F8A0005A6940681C6900682243A3
:20600C00C0F80425084606F009FAB0BD0846FEF7B5F9B0BD2DE9FC410025ADF8005008F01C
:20602C0015F8214E3188ADF80010358008F03EF91E4CDFF87C80BDF80000C00809D340466A
:20604C002178077837B9062904D10121017003F0C5FC2178BDF80000800912D3062905D120
:20606C004046007868B102F0FDFB0AE007F0EEFF318841F00801318008F018F9A06801F09F
:20608C00BBFFBDF80000000904D34046007808B104F0F0FCBDF80000400903D304F0D0FA7C
:2060AC0040460570BDE8FC81F61C0020E80B0020F11C0020F0B520480127F84201D003F012
:2060CC00CFFB204D204F214EBD4206D203CD0478A4003459401CA047F6E71D48002800D0CE
:2060EC008047164D164FBD4202D210CDA047FAE7F0BD03251BE0416808300A1C2A400BD170
:20610C001A1C2A40AB4305D0046804300C600431043BF9D1131C05D0047801300C70013167
:20612C00013BF9D1021C2A4001D0A84304300368002BE0D17047C046FFFFFFFF00000000D5
:20614C000000000020F8000050F80000ECF70000399400002DE9FF41244D8046681C00789A
:20616C000E46082814BF04240024084604F0ACF8684601F073FDA4190026E178A0786E8039
:20618C0000EB01202E7080106946A880204602F09DF918B3204607F062FEE861000BE880B0
:2061AC0007F01AFAA8B1E888A988C4B200EB2120C7B2A74208DB3F1B7F1C204608F037F865
:2061CC00641CE4B27F1EF8D14046314602F0ACF908E04046022101F0A1FF03E04046694669
:2061EC0001F06CF80090BDE8FF81C046FC170020F8B5254C056846680021703C6160EA7E21
:20620C00D5F81A10306806F075FC1B4B3068298BEA8AFEF7E1FB6A8AC2F30110110928BFCA
:20622C0040F0040000F007002060E968AE8A2B8A02F0010702F0060040EAC70000294FEA24
:20624C00A2124FEAA61606DD082904DC0B4A12681269904702E0314605F0ECF9A88A084ABD
:20626C000849C0F34010106001270F60206F20F03F002067F8BDC046FC00FFFFB8010010D4
:20628C00C82008402820086070100240B0B5244C2278E1889308084603D3491C401CE18097
:2062AC0080B2A18852080F4603D3491C7F1CA180BFB2062F11DB06280FDB04F108000546DF
:2062CC0007F0FEFC58B3284608F018F80020A080E080607840F001001CE003280BDA384310
:2062EC001DD104F10800044607F0EAFCB8B1204608F004F8B0BD97B904F10800054607F0C1
:20630C00DFFC60B1284607F0F9FF0020E080607840F0020060700348006801F06DFEB0BD52
:20632C00FC200020F00B002010B50020442101F01FFB002808BF002440D0214C1F200222B2
:20634C00214607F09AFD002835D021880806000C40EA2120782815D1102020802146022002
:20636C00024606F083F830B302202146024607F084FD00B321880806000C40EA2120B0F5A6
:20638C00805F01D0208016E00020208021460220024606F06BF870B102202146024607F0D8
:2063AC006CFD40B121880806000C50EA2120208008BF012400D0002407F00CFE204610BD85
:2063CC00E4320020002A4AD05FEA000C8B071CD1830722D1102A08D370B4103A78C978C0EA
:2063EC00103AFBD270BC103238D0042A2CD3082A05D30C2A24BF08C908C008C908C008C9B1
:20640C0008C092072AD0920F22E00B780370491C401C521E22D08B07F7D1C30714D18307C6
:20642C00D8D0121F12D308C903801B0C4380001D121FF8D20AE008C903701B0A43701B0A11
:20644C0083701B0AC370001D121FF4D2121D05D00B780370491C401C521EF9D1604670477F
:20646C002DE9F0410668446807F0F0FD804696F8240040BB737BF06E2178002203B101227A
:20648C0004F05EFE1A4900251020401E41F8045BFBD1184C0BE0A06807F008FE0746F2692A
:2064AC00B18AB8689047F2690C2138469047A06807F014FD0028EED0A570E570206AA580B2
:2064CC00FDF762FD20B9404607F0F0FEBDE8F081022005F027F9012086F82400404607F08C
:2064EC00E5FEE068022101F031F9BDE8F081C046B8050020200500202DE9F843224D88465B
:20650C0006464FF0FF3105F124008146FEF7D8FC00200CE0FF2909D02A688A4204D905EBD2
:20652C008101D1F894700FB1002627E0401CB8F1000F03D018F82010FE29EBD10024346051
:20654C0074600127B46011E0FF280ED005EB80000B787268C0F8946007FA03F01043706099
:20656C000A680A49304605F0BDFC641CB8F1000F04D008EB84010878FE28E5D1484601F0C7
:20658C003BFD3046BDE8F883302C0020007FC7672DE9F8432020EFF3118780F31188214C74
:2065AC00A068012107F0C0FE4FF001094FF0000865692168A4F81C906A1A2168A4F81E807A
:2065CC00461B401A904227D387F3118840464519361A4846294600F0E9FEB042F7D920210A
:2065EC00EFF3118781F31188E18B012903D14046294600F0DBFEB0F1FF3F06D0A169801B86
:20660C00814238BF081C411901E0A069291806F079FDA4F820902560A4F81C8087F3118883
:20662C00BDE8F883282100201CB50020772101F09FF9002808BF00243FD0D02069460122CF
:20664C0007F01BFC002835D09DF80000582831D1F5206946012207F010FC00282AD09DF83B
:20666C00000038BB55208DF8000069460122F42005F0FCFEF0B1F4206946012207F0FDFBD6
:20668C00C0B19DF80000552814D1B6208DF8000069460122E02005F0E9FE58B1F4206946B1
:2066AC00012207F0EAFB28B19DF80000002808BF012400D0002407F08DFC20461CBD7047E3
:2066CC002DE9FE4F8046B8F1000F01920C9802919B46009005D0081C03D0101C01D0009831
:2066EC0010B90220BDE8FE8F1948017800252C4629E0A00038F800A04FF6FF7708EB0006D3
:20670C0057451CD0B778D7B10198029A594607F022FA5FEA000912D0780806D3009B504689
:20672C0001214A4601F090F90543B078800806D33088009B02214A4601F086F90543044846
:20674C000178641CE4B2A142D3DC2846BDE8FE8FA00F0020F8B50F4601464C688E6838462C
:20676C00203804F10C0432D0401E2CD0401E27D120781578012814BF19491A49FF2D41EAC1
:20678C0005011BD0D4F8900001F0D2FB98B93068B0F1804F14BF23220B22D4F89000294679
:2067AC0005F08AFBD4F8900094F8811001F0EAFE84F8815012E04FF0FF30F8BDFF25F1E7A3
:2067CC006FF00100F8BD002084F89800F8BD21780020012908BF012084F898000020F8BDFB
:2067EC000004C0A000200080FEB5044622481646089FC069618250F821201C4800681D465B
:20680C0090420DD01B480068009000220191184E029231888F23384606F0D6FC0120FEBD27
:20682C00084603F005FCA66068696060286AB0F1FF3F08BFFF2020740026E660288B002841
:20684C000EBF301C0120E0600146A88C10B141F00200E060204602F00DF90346384606F0E8
:20686C00A5FC002814BFD81C301CFEBD7CEE000006EE000068EE00000820002080B540689C
:20688C0000F10802C0F8A8100868C2F8A4004868C2F8A8008868C2F8AC00C8681A49C2F8FE
:2068AC00B000D2F8A87097B9D2F8A000007C400040F0010041F8040C022010700B68DB0951
:2068CC0017D2D2F8B020022A17D30B2216E0D2F8A000007C0127400041F8040CD2F8A400EB
:2068EC001770431CC2F8A430007848600868C00902D34FF0FF3080BD022003220A6007F097
:20690C0093FC002080BDC0460428004022482DE9FE4F801E028880465FFA92F1100100F471
:20692C007042801A1FFA80FBB8F80200C5B241185FFA81FA0021AA45019124DBAAEB0506D4
:20694C00761CA8420CBF04240024AA45D8BFA34513DD284621466A4607F00EFC0427E9465A
:20696C0019F8011B019804F03DFF7F1E0190F7D1241DA4B2B4F5805FE7DBB8F802006D1C03
:20698C00761EEDB2DDD10198002104F02BFF002104F028FFBDE8FE8F021800202DE9984399
:2069AC0007F054FB1F4CDFF87880814604F1E000007850B94446A068014602208847074617
:2069CC00102003F02BF92FB320E001F023FD002820460FD1144909683222B2FBF1F101B998
:2069EC00012100F13004204607F0A8FC204606F085FF0FE044460022A16880F8E020022025
:206A0C0088470746102003F009F91FB1A068014603208847484607F049FCBDE89883C04688
:206A2C00C8ED00001C19002090EE0000F8B50D461F4C20490728164638D8DFE800F0192C57
:206A4C002A2826242104284606F024F8071C2DD0616804F11700884202D0606806F0D8FCC6
:206A6C00384631462A46FFF7ADFC67602570F8BD082D1BD130680F34206077686760F8BD1E
:206A8C000C46153408E00C4606E0643404E04F3402E03A3400E0253420460021152200F0F9
:206AAC005BFB204631462A46FFF78CFCF8BDC046FC1400207515002070B51F4CA56806462B
:206ACC0006F0FAFC4FF47A71401B4843050C05F02DFC2169401A48BF404240F6B831AD1929
:206AEC00A94211D306280FDAA268E1688A420BD8206848B1891A114A51438A0C02EB1141BA
:206B0C00884288BF011C08E00D49486840080ED208687D2100F0FF004143C82905D3B1F535
:206B2C007A6F88BF4FF47A6103E0C82101E04FF4FA61084670BDC046B832002040420F0094
:206B4C00AC3F00502DE9F04107467868051DD0F8BC00A8B307F07AFA1A4E00248046F46068
:206B6C0004203060022007F05FFB2B68D5F8A410384622469847022004F0BCFD09E0816967
:206B8C002B6822463846C5F8B8109847022004F0B1FDD5F8B800D5F8BC108142EFD1204641
:206BAC00C5F8A4002C71C5F8B800C5F8BC00064B346038461C6002F035FF404607F076FBEA
:206BCC00BDE8F0810428004010040542F8B5001D84B214F0030002D0241A241DA4B206F028
:206BEC002AFB01461948102C47680160C8BF8768388800221646C30BDD0319D126B984427F
:206C0C000ADD3A46012617E01388C3189BB29C42138011DC174618469FB1001B80B204283E
:206C2C00B4BF3C88385344F400443C803F1D08E080F40040002680B2C71938880028DAD18B
:206C4C000027084606F02EFE3846F8BD3C1A0020B0B50446A768ADF1280D27BB0C20FFF753
:206C6C00B5FF071C16D0684600212422082307F00BFA002306976A466168ADF81030144895
:206C8C00059304F07FF8386038B906F000FE384604F0F4FF6FF0030018E0E0687860206900
:206CAC00B860A7600AE006F0C6FA0546386806F021F82069B860284606F0F4FD38686168B0
:206CCC0007F03CFB386806F019FE00200AB0B0BD69DF0000F8B5066807F0B8F90546306B95
:206CEC000179072918BF31F0080704D1284607F0DDFA0020F8BD174C04290FD007210171E8
:206D0C00206840F001002060284607F0CFFA06F16C0049F64041FEF7D3F8A8B1284607F05F
:206D2C00C5FA002544F86C5C20683F2720F03F0020601C20E76006F0ADF91C2003F078F9E3
:206D4C0004F0A8FC012001E009250020316B0D71F8BDC04670100240B0B514460F4607F09D
:206D6C0075F985B219480068007808B906F076F987B1384605F0D3F940B114B14FF0FF3060
:206D8C0020700820FDF794FE002419E038687968BA6803E04FF480700122014604F0B6F9C6
:206DAC000B49012008600B4908684008FCD30A4800684168022088470CB100212170044602
:206DCC00284607F073FA2046B0BDC046D8ED0000A802504208800240CC010010F8B50E4653
:206DEC00044606F0C5FF0546304605F0BDF8071C03D1284604F0DCFA26E0F87F10F0070F56
:206E0C001BD113487968884202D079682166786010A090E8060004F15807284687E80600FD
:206E2C0004F0C6FA04F138004FF0FF31FEF748F804F1680696E80300F8BD284604F0B8FA14
:206E4C00F87F10F0070FFBD102200021F8BDC046B99800000200000000000070B0B5174947
:206E6C001C481D4A0F68C0691549C2F8080DD2F8083D99420ED06FB1124B1B6800240F2C47
:206E8C002CBF1D1C0D68091D641C05607F1E00F10400F4D10D48D2F80C7D0B4D016820243E
:206EAC0027F47F4000EB01202918C2F80C1D084B82F8224D1868C2F8140DB0BD6CEE00005E
:206ECC00101000007CEE00000000FA0580EE000074EE00000820002000E000E070B50D46CD
:206EEC001B4A1A4904462B4604F084FE2061284606F05CF940BB184801220021A56803683C
:206F0C0022751448A161002D18D4A1688A408069A168E26007F0C4F8206406F041FFEFF301
:206F2C0011850646202080F31188204606F080FC85F31188304605F089FB05E0E160C01841
:206F4C002146206406F008F9002070BD9DD100000DAA0000901F0020A8EE0000F8B50E466B
:206F6C0005461446A969EA691F462046FFF72AFA64602FB1EA6920463946082302F0DEFE41
:206F8C00E468D6B9E8686969AA68079B07F0C4F8071C08BF002020D007F0B2F8696839607C
:206FAC00696849687960696849680F6069684F6006F0FEFE07F1080605E06A6930460021B2
:206FCC00083A00F0C9F82868B0F1FF3F18BF3060286908B1616831503046F8BD2DE9F043D4
:206FEC00ADF13C0D06F0DCFE1A4C184D002680461C3C684600213C22082307F075F854F8B7
:20700C00042F6868AF6806902B680897694605920F480493002203F093F8071C10D006F0B5
:20702C000AF98146384602F011FB48B1484606F039FC2D1D761CDCD0404605F007FB01E066
:20704C0002F092FF0FB0BDE8F083C04674E300002DDC0000481A002070B504684668D4F8D7
:20706C00940005F0A6FE15480025056004F1340007F052F9B079FDF71BFD04F16C0007F0F8
:20708C0065F9207818B904F1500007F05FF904F001FB0B48006828B10A4807F051F90A4820
:2070AC0007F04EF909480560094E356006F0CEFF84F8985007F0FAF870BDC046041002404B
:2070CC00FC320020D8320020CC320020B0210020B42100201CB5042005F018FF022818D015
:2070EC00032816D016480068C0F38150032814BF41F288324FF47A721248144C0168543464
:20710C002046B2FBF1F107F019F9204606F0F6FB1CBD03200C4C009000214FF040521C2303
:20712C00204602F0C7FC012000214FF4007209230090204602F0BEFC022004F0DBFA1CBD9F
:20714C00B43F005090EE000000A00C401C190020002213460A46194671B510F0030F0BD0E4
:20716C00002A82BF00F8011BB2F1010210F0030FF6D1002A08BF71BD11F0FF0141EA012198
:20718C00042A18D341EA0141082A0FD30E46102A08D30C460D46B2F10F0312F00F0272C041
:2071AC00103BFCD812F0080F18BF42C012F0040F18BF40F8041B12F0020F18BF20F8021B50
:2071CC0012F0010F18BF017071BD70472DE9F84FDFF868A00A9E0C461D46B6F90010DFF835
:2071EC006090AAF8001095F90030804604EB4200002A89F800301ADD001BC01C8710009735
:20720C0034F9020BFEF7BEFC834634F9020BFEF7B9FC4BEA001B7F1E5FFA8BF008F8010BFF
:20722C00EED1BAF9001099F90030009800E000203180C0B22B70BDE8F88FC046043300201F
:20724C00063300200246184808B50068C0F3046006F0F7FD00EB2270401C162805DA10F104
:20726C000A0FB8BF6FF0090000E015200F49104B00F01F0040F4F85008801868800803D252
:20728C000C490020086001E042F040620A49D00E930E80F0010000F00100086083F0010040
:2072AC0000F00100886008BDB81200506E6208400000094094042A4300002043FEB51C4D25
:2072CC000C462D1FE968064606F092FC40082CD330460821002205F0C5FD0746019727B365
:2072EC002A4602F120001021083206F034FC08254089ADF80250ADF8000022783A702188EF
:20730C00019809124170A17881706188231D0912C1701968051D30462960694605F07EFFBA
:20732C0018B168461B2105F0ABFD06F049F9FEBD0018002010B51C4C00202070FEF7F4FF01
:20734C0018B1207840F00100207000F08BFD18B1207840F002002070FFF766F918B12078AE
:20736C0040F00800207002F089F818B1207840F00400207001F034F918B1207840F01000E2
:20738C00207003F021F818B1207840F02000207006F0D8FB002808BF207803D0207840F019
:2073AC004000207010BDC0460A3300202DE9F04780461A481A4C00682418204606F0C2FF25
:2073CC000E464FF0FF374FF0000A814621E04D46284606F0B9FF8146A88A012819D1B8F163
:2073EC00010F0ED1E86886420BD12869002808BFA5F814A002D0E9684018E860A969E869A7
:20740C008847A88A012804D1E868801B874288BF071C4C45DBD13846BDE8F0878CEE0000F2
:20742C002821002038B5054601201A4C68712879B0B905F000FF2178002904BF6FF0070452
:20744C00051C15D0491EC9B2217039B906F02AFA606804F017FB0020687118E0054613E09E
:20746C0005F0E9FE05462078FF2805D16FF00604284606F017FA0BE0401CC0B201282070F4
:20748C0002D1606804F015FB284606F00BFA0024204638BDB821002070B50646B079F56869
:2074AC000B28A5F108052CDA30790B2829DA05F0C2FE154CB27991000C3401EBC2016118CB
:2074CC004968E1B106F0EEF930792870B0796870307AA870B179880000EBC1002018F1688D
:2074EC004068083004F064FCB179880000EBC10024186068406800F07FFD002070BD06F093
:20750C00D1F96FF0020070BDA81A002038B519491A4C00204822C1F8F30F94F8E200C1F804
:20752C00FF2F20B3012817D0022807D003281ED151F8310C00F024F80B2016E051F8315C8A
:20754C002846FBF79BFA40F2FF50A84202D8801CA842F1D2082008E051F8310C00F0CEFE4A
:20756C00054800780028E7D0052084F8E400FBF7D9FE38BD39400C40D6ED00001C1900203B
:20758C0038B51A4CA0F5C060D4F8B810C4F8D4000029B8BF49420028B8BF4042814220DAAA
:2075AC00B4F8BC00124D30214FF47F4208230090284602F07FFAB4F8C00004214FF4F80241
:2075CC0012230090284602F075FAB4F8D00020214FF440620A230090284602F06BFA0120C6
:2075EC0000E0002084F8D80038BDC0461C19002000A00C402DE9FF410E460546194C71889C
:20760C00E08A81420CDCB188814209DBF088218B884205D13089618B884208BF18271DD043
:20762C00052002F0D1FF7788B388ADF80270F288ADF804303189ADF806208046ADF80810AB
:20764C00A08AADF80000684606F070FC071C05D1A57304F1F000414603F0B4FA3846009013
:20766C00BDE8FF81A00F00202DE9FC4117460E4605464FF0020801F077FF18BB04F0D2FA78
:20768C0000BB05F0FF04C4F58074B44288BF341C8DF800808DF80350280C8DF80100280A28
:2076AC008DF8020006F0F4F96846042104F082F8361B651920B93846214604F07BF820B14E
:2076CC0006F0DCF90020BDE8FC8106F0D7F9E719002ED0D10120BDE8FC8170471A4898B553
:2076EC00D0F8781203680F0F03F0FF03802B28BF002302F0BBF94FF0FF3478B1401E07D083
:20770C00401E012802D9801E19D01AE0BFB118E0381C12D0801E14D1143311E03846401E45
:20772C000BD0801E07D0001F03D0401E09D1163306E0152405E0142403E00A2401E00A330F
:20774C005CB2204698BDC046A0100050034670B52020EFF3118580F31188186801431648FA
:20776C00006819601C18181806F0B8FB08BB06F017FB0646204606F0E5FD0446A169E2691B
:20778C00184605F0C7FA6061606960B1204606F0ACFB01202074E06808B105F0ABFAA068D3
:2077AC00294604F07BFC85F31188304604F04EFF70BD85F3118870BD98EE000070B5021CE7
:2077CC00ADF1380D2ED0184904A86B4604F02AFF2024EFF3118504A8039084F3118806F0E0
:2077EC00DFFA064606F086FC029003F0FBFD039800F0D0FA684606F065FD0298C0F818D0CE
:20780C0085F31188304604F021FFEFF3118384F31188039806F090FD0021039183F3118859
:20782C00029881610EB070BDF9D20000F8B5174A174B184C121D22F003019C4621605E1A16
:20784C002068256860606768A660002001E025F8020BAB42FBD84FF6FC75B3102A4001EBB8
:20786C00830323F8040CACEB0202E82315403B80EC3DA1F8E850E83144F8081CFFF7A6F98D
:20788C0044F8040C606844F8080CF8BD0C33002028420020481A002038B504461848174D5D
:2078AC00C03002686B68C2F30351C2F303405B0813D22B681D0511EB257103D41029A8BF88
:2078CC000F2100E000211B0410EB237303D4102BA8BF0F2300E00023184640EA011002F47E
:2078EC007F4102F0FF03222C41EA004143EA010024BF02F08042104338BDC046AC3F0050C0
:20790C00B812005030B5401E4FF00004ADF12C0D0AD0401E04D0401E20D1FBF703FD1DE09A
